{
  "_format": "hh-sol-artifact-1",
  "contractName": "CyberNomadNFT",
  "sourceName": "contracts/CyberNomadNFT.sol",
  "abi": [
    {
      "inputs": [],
      "stateMutability": "payable",
      "type": "constructor"
    },
    {
      "anonymous": false,
      "inputs": [
        {
          "indexed": true,
          "internalType": "address",
          "name": "owner",
          "type": "address"
        },
        {
          "indexed": true,
          "internalType": "address",
          "name": "approved",
          "type": "address"
        },
        {
          "indexed": true,
          "internalType": "uint256",
          "name": "tokenId",
          "type": "uint256"
        }
      ],
      "name": "Approval",
      "type": "event"
    },
    {
      "anonymous": false,
      "inputs": [
        {
          "indexed": true,
          "internalType": "address",
          "name": "owner",
          "type": "address"
        },
        {
          "indexed": true,
          "internalType": "address",
          "name": "operator",
          "type": "address"
        },
        {
          "indexed": false,
          "internalType": "bool",
          "name": "approved",
          "type": "bool"
        }
      ],
      "name": "ApprovalForAll",
      "type": "event"
    },
    {
      "anonymous": false,
      "inputs": [
        {
          "indexed": true,
          "internalType": "address",
          "name": "previousOwner",
          "type": "address"
        },
        {
          "indexed": true,
          "internalType": "address",
          "name": "newOwner",
          "type": "address"
        }
      ],
      "name": "OwnershipTransferred",
      "type": "event"
    },
    {
      "anonymous": false,
      "inputs": [
        {
          "indexed": true,
          "internalType": "address",
          "name": "from",
          "type": "address"
        },
        {
          "indexed": true,
          "internalType": "address",
          "name": "to",
          "type": "address"
        },
        {
          "indexed": true,
          "internalType": "uint256",
          "name": "tokenId",
          "type": "uint256"
        }
      ],
      "name": "Transfer",
      "type": "event"
    },
    {
      "inputs": [
        {
          "internalType": "address",
          "name": "to",
          "type": "address"
        },
        {
          "internalType": "uint256",
          "name": "tokenId",
          "type": "uint256"
        }
      ],
      "name": "approve",
      "outputs": [],
      "stateMutability": "nonpayable",
      "type": "function"
    },
    {
      "inputs": [
        {
          "internalType": "address",
          "name": "owner",
          "type": "address"
        }
      ],
      "name": "balanceOf",
      "outputs": [
        {
          "internalType": "uint256",
          "name": "",
          "type": "uint256"
        }
      ],
      "stateMutability": "view",
      "type": "function"
    },
    {
      "inputs": [
        {
          "internalType": "uint256",
          "name": "tokenId",
          "type": "uint256"
        }
      ],
      "name": "getApproved",
      "outputs": [
        {
          "internalType": "address",
          "name": "",
          "type": "address"
        }
      ],
      "stateMutability": "view",
      "type": "function"
    },
    {
      "inputs": [
        {
          "internalType": "address",
          "name": "owner",
          "type": "address"
        },
        {
          "internalType": "address",
          "name": "operator",
          "type": "address"
        }
      ],
      "name": "isApprovedForAll",
      "outputs": [
        {
          "internalType": "bool",
          "name": "",
          "type": "bool"
        }
      ],
      "stateMutability": "view",
      "type": "function"
    },
    {
      "inputs": [],
      "name": "isPublicMintEnabled",
      "outputs": [
        {
          "internalType": "bool",
          "name": "",
          "type": "bool"
        }
      ],
      "stateMutability": "view",
      "type": "function"
    },
    {
      "inputs": [],
      "name": "maxPerWallet",
      "outputs": [
        {
          "internalType": "uint256",
          "name": "",
          "type": "uint256"
        }
      ],
      "stateMutability": "view",
      "type": "function"
    },
    {
      "inputs": [],
      "name": "maxSupply",
      "outputs": [
        {
          "internalType": "uint256",
          "name": "",
          "type": "uint256"
        }
      ],
      "stateMutability": "view",
      "type": "function"
    },
    {
      "inputs": [
        {
          "internalType": "uint256",
          "name": "quantity_",
          "type": "uint256"
        }
      ],
      "name": "mint",
      "outputs": [],
      "stateMutability": "payable",
      "type": "function"
    },
    {
      "inputs": [],
      "name": "mintPrice",
      "outputs": [
        {
          "internalType": "uint256",
          "name": "",
          "type": "uint256"
        }
      ],
      "stateMutability": "view",
      "type": "function"
    },
    {
      "inputs": [],
      "name": "name",
      "outputs": [
        {
          "internalType": "string",
          "name": "",
          "type": "string"
        }
      ],
      "stateMutability": "view",
      "type": "function"
    },
    {
      "inputs": [],
      "name": "owner",
      "outputs": [
        {
          "internalType": "address",
          "name": "",
          "type": "address"
        }
      ],
      "stateMutability": "view",
      "type": "function"
    },
    {
      "inputs": [
        {
          "internalType": "uint256",
          "name": "tokenId",
          "type": "uint256"
        }
      ],
      "name": "ownerOf",
      "outputs": [
        {
          "internalType": "address",
          "name": "",
          "type": "address"
        }
      ],
      "stateMutability": "view",
      "type": "function"
    },
    {
      "inputs": [],
      "name": "renounceOwnership",
      "outputs": [],
      "stateMutability": "nonpayable",
      "type": "function"
    },
    {
      "inputs": [
        {
          "internalType": "address",
          "name": "from",
          "type": "address"
        },
        {
          "internalType": "address",
          "name": "to",
          "type": "address"
        },
        {
          "internalType": "uint256",
          "name": "tokenId",
          "type": "uint256"
        }
      ],
      "name": "safeTransferFrom",
      "outputs": [],
      "stateMutability": "nonpayable",
      "type": "function"
    },
    {
      "inputs": [
        {
          "internalType": "address",
          "name": "from",
          "type": "address"
        },
        {
          "internalType": "address",
          "name": "to",
          "type": "address"
        },
        {
          "internalType": "uint256",
          "name": "tokenId",
          "type": "uint256"
        },
        {
          "internalType": "bytes",
          "name": "data",
          "type": "bytes"
        }
      ],
      "name": "safeTransferFrom",
      "outputs": [],
      "stateMutability": "nonpayable",
      "type": "function"
    },
    {
      "inputs": [
        {
          "internalType": "address",
          "name": "operator",
          "type": "address"
        },
        {
          "internalType": "bool",
          "name": "approved",
          "type": "bool"
        }
      ],
      "name": "setApprovalForAll",
      "outputs": [],
      "stateMutability": "nonpayable",
      "type": "function"
    },
    {
      "inputs": [
        {
          "internalType": "string",
          "name": "baseTokenUri_",
          "type": "string"
        }
      ],
      "name": "setBaseTokenUri",
      "outputs": [],
      "stateMutability": "nonpayable",
      "type": "function"
    },
    {
      "inputs": [
        {
          "internalType": "bool",
          "name": "isPublicMintEnabled_",
          "type": "bool"
        }
      ],
      "name": "setIsPublicMintEnabled",
      "outputs": [],
      "stateMutability": "nonpayable",
      "type": "function"
    },
    {
      "inputs": [
        {
          "internalType": "bytes4",
          "name": "interfaceId",
          "type": "bytes4"
        }
      ],
      "name": "supportsInterface",
      "outputs": [
        {
          "internalType": "bool",
          "name": "",
          "type": "bool"
        }
      ],
      "stateMutability": "view",
      "type": "function"
    },
    {
      "inputs": [],
      "name": "symbol",
      "outputs": [
        {
          "internalType": "string",
          "name": "",
          "type": "string"
        }
      ],
      "stateMutability": "view",
      "type": "function"
    },
    {
      "inputs": [
        {
          "internalType": "uint256",
          "name": "tokenId_",
          "type": "uint256"
        }
      ],
      "name": "tokenURI",
      "outputs": [
        {
          "internalType": "string",
          "name": "",
          "type": "string"
        }
      ],
      "stateMutability": "view",
      "type": "function"
    },
    {
      "inputs": [],
      "name": "totalSupply",
      "outputs": [
        {
          "internalType": "uint256",
          "name": "",
          "type": "uint256"
        }
      ],
      "stateMutability": "view",
      "type": "function"
    },
    {
      "inputs": [
        {
          "internalType": "address",
          "name": "from",
          "type": "address"
        },
        {
          "internalType": "address",
          "name": "to",
          "type": "address"
        },
        {
          "internalType": "uint256",
          "name": "tokenId",
          "type": "uint256"
        }
      ],
      "name": "transferFrom",
      "outputs": [],
      "stateMutability": "nonpayable",
      "type": "function"
    },
    {
      "inputs": [
        {
          "internalType": "address",
          "name": "newOwner",
          "type": "address"
        }
      ],
      "name": "transferOwnership",
      "outputs": [],
      "stateMutability": "nonpayable",
      "type": "function"
    },
    {
      "inputs": [
        {
          "internalType": "address",
          "name": "",
          "type": "address"
        }
      ],
      "name": "walletMints",
      "outputs": [
        {
          "internalType": "uint256",
          "name": "",
          "type": "uint256"
        }
      ],
      "stateMutability": "view",
      "type": "function"
    },
    {
      "inputs": [],
      "name": "withdraw",
      "outputs": [],
      "stateMutability": "nonpayable",
      "type": "function"
    }
  ],
  "bytecode": "0x60806040526040518060400160405280600d81526020017f43796265724e6f6d61644e4654000000000000000000000000000000000000008152506040518060400160405280600281526020017f434e000000000000000000000000000000000000000000000000000000000000815250816000908051906020019062000088929190620001bf565b508060019080519060200190620000a1929190620001bf565b505050620000c4620000b8620000f160201b60201c565b620000f960201b60201c565b66470de4df82000060078190555060006008819055506103e86009819055506003600a81905550620002d4565b600033905090565b6000600660009054906101000a900473ffffffffffffffffffffffffffffffffffffffff16905081600660006101000a81548173ffffffffffffffffffffffffffffffffffffffff021916908373ffffffffffffffffffffffffffffffffffffffff1602179055508173ffffffffffffffffffffffffffffffffffffffff168173ffffffffffffffffffffffffffffffffffffffff167f8be0079c531659141344cd1fd0a4f28419497f9722a3daafe3b4186f6b6457e060405160405180910390a35050565b828054620001cd906200026f565b90600052602060002090601f016020900481019282620001f157600085556200023d565b82601f106200020c57805160ff19168380011785556200023d565b828001600101855582156200023d579182015b828111156200023c5782518255916020019190600101906200021f565b5b5090506200024c919062000250565b5090565b5b808211156200026b57600081600090555060010162000251565b5090565b600060028204905060018216806200028857607f821691505b602082108114156200029f576200029e620002a5565b5b50919050565b7f4e487b7100000000000000000000000000000000000000000000000000000000600052602260045260246000fd5b6136c180620002e46000396000f3fe6080604052600436106101815760003560e01c806370a08231116100d1578063a22cb4651161008a578063d5abeb0111610064578063d5abeb011461054d578063e985e9c514610578578063f0293fd3146105b5578063f2fde38b146105f257610181565b8063a22cb465146104be578063b88d4fde146104e7578063c87b56dd1461051057610181565b806370a08231146103cf578063715018a61461040c5780638da5cb5b1461042357806395652cfa1461044e57806395d89b4114610477578063a0712d68146104a257610181565b80632373ac221161013e57806342842e0e1161011857806342842e0e14610313578063453c23101461033c5780636352211e146103675780636817c76c146103a457610181565b80632373ac22146102aa57806323b872dd146102d35780633ccfd60b146102fc57610181565b80630116bc2d1461018657806301ffc9a7146101b157806306fdde03146101ee578063081812fc14610219578063095ea7b31461025657806318160ddd1461027f575b600080fd5b34801561019257600080fd5b5061019b61061b565b6040516101a89190612b4d565b60405180910390f35b3480156101bd57600080fd5b506101d860048036038101906101d391906125b4565b61062e565b6040516101e59190612b4d565b60405180910390f35b3480156101fa57600080fd5b50610203610710565b6040516102109190612b68565b60405180910390f35b34801561022557600080fd5b50610240600480360381019061023b919061264b565b6107a2565b60405161024d9190612ae6565b60405180910390f35b34801561026257600080fd5b5061027d6004803603810190610278919061254f565b6107e8565b005b34801561028b57600080fd5b50610294610900565b6040516102a19190612dea565b60405180910390f35b3480156102b657600080fd5b506102d160048036038101906102cc919061258b565b610906565b005b3480156102df57600080fd5b506102fa60048036038101906102f59190612449565b61092b565b005b34801561030857600080fd5b5061031161098b565b005b34801561031f57600080fd5b5061033a60048036038101906103359190612449565b610a64565b005b34801561034857600080fd5b50610351610a84565b60405161035e9190612dea565b60405180910390f35b34801561037357600080fd5b5061038e6004803603810190610389919061264b565b610a8a565b60405161039b9190612ae6565b60405180910390f35b3480156103b057600080fd5b506103b9610b11565b6040516103c69190612dea565b60405180910390f35b3480156103db57600080fd5b506103f660048036038101906103f191906123e4565b610b17565b6040516104039190612dea565b60405180910390f35b34801561041857600080fd5b50610421610bcf565b005b34801561042f57600080fd5b50610438610be3565b6040516104459190612ae6565b60405180910390f35b34801561045a57600080fd5b5061047560048036038101906104709190612606565b610c0d565b005b34801561048357600080fd5b5061048c610c2b565b6040516104999190612b68565b60405180910390f35b6104bc60048036038101906104b7919061264b565b610cbd565b005b3480156104ca57600080fd5b506104e560048036038101906104e09190612513565b610e94565b005b3480156104f357600080fd5b5061050e60048036038101906105099190612498565b610eaa565b005b34801561051c57600080fd5b506105376004803603810190610532919061264b565b610f0c565b6040516105449190612b68565b60405180910390f35b34801561055957600080fd5b50610562610f88565b60405161056f9190612dea565b60405180910390f35b34801561058457600080fd5b5061059f600480360381019061059a919061240d565b610f8e565b6040516105ac9190612b4d565b60405180910390f35b3480156105c157600080fd5b506105dc60048036038101906105d791906123e4565b611022565b6040516105e99190612dea565b60405180910390f35b3480156105fe57600080fd5b50610619600480360381019061061491906123e4565b61103a565b005b600b60009054906101000a900460ff1681565b60007f80ac58cd000000000000000000000000000000000000000000000000000000007bffffffffffffffffffffffffffffffffffffffffffffffffffffffff1916827bffffffffffffffffffffffffffffffffffffffffffffffffffffffff191614806106f957507f5b5e139f000000000000000000000000000000000000000000000000000000007bffffffffffffffffffffffffffffffffffffffffffffffffffffffff1916827bffffffffffffffffffffffffffffffffffffffffffffffffffffffff1916145b806107095750610708826110be565b5b9050919050565b60606000805461071f90613058565b80601f016020809104026020016040519081016040528092919081815260200182805461074b90613058565b80156107985780601f1061076d57610100808354040283529160200191610798565b820191906000526020600020905b81548152906001019060200180831161077b57829003601f168201915b5050505050905090565b60006107ad82611128565b6004600083815260200190815260200160002060009054906101000a900473ffffffffffffffffffffffffffffffffffffffff169050919050565b60006107f382610a8a565b90508073ffffffffffffffffffffffffffffffffffffffff168373ffffffffffffffffffffffffffffffffffffffff161415610864576040517f08c379a000000000000000000000000000000000000000000000000000000000815260040161085b90612d4a565b60405180910390fd5b8073ffffffffffffffffffffffffffffffffffffffff16610883611173565b73ffffffffffffffffffffffffffffffffffffffff1614806108b257506108b1816108ac611173565b610f8e565b5b6108f1576040517f08c379a00000000000000000000000000000000000000000000000000000000081526004016108e890612d6a565b60405180910390fd5b6108fb838361117b565b505050565b60085481565b61090e611234565b80600b60006101000a81548160ff02191690831515021790555050565b61093c610936611173565b826112b2565b61097b576040517f08c379a000000000000000000000000000000000000000000000000000000000815260040161097290612bca565b60405180910390fd5b610986838383611347565b505050565b610993611234565b6000600d60009054906101000a900473ffffffffffffffffffffffffffffffffffffffff1673ffffffffffffffffffffffffffffffffffffffff16476040516109db90612ad1565b60006040518083038185875af1925050503d8060008114610a18576040519150601f19603f3d011682016040523d82523d6000602084013e610a1d565b606091505b5050905080610a61576040517f08c379a0000000000000000000000000000000000000000000000000000000008152600401610a5890612daa565b60405180910390fd5b50565b610a7f83838360405180602001604052806000815250610eaa565b505050565b600a5481565b600080610a9683611641565b9050600073ffffffffffffffffffffffffffffffffffffffff168173ffffffffffffffffffffffffffffffffffffffff161415610b08576040517f08c379a0000000000000000000000000000000000000000000000000000000008152600401610aff90612d2a565b60405180910390fd5b80915050919050565b60075481565b60008073ffffffffffffffffffffffffffffffffffffffff168273ffffffffffffffffffffffffffffffffffffffff161415610b88576040517f08c379a0000000000000000000000000000000000000000000000000000000008152600401610b7f90612cca565b60405180910390fd5b600360008373ffffffffffffffffffffffffffffffffffffffff1673ffffffffffffffffffffffffffffffffffffffff168152602001908152602001600020549050919050565b610bd7611234565b610be1600061167e565b565b6000600660009054906101000a900473ffffffffffffffffffffffffffffffffffffffff16905090565b610c15611234565b8181600c9190610c26929190612226565b505050565b606060018054610c3a90613058565b80601f0160208091040260200160405190810160405280929190818152602001828054610c6690613058565b8015610cb35780601f10610c8857610100808354040283529160200191610cb3565b820191906000526020600020905b815481529060010190602001808311610c9657829003601f168201915b5050505050905090565b600b60009054906101000a900460ff16610d0c576040517f08c379a0000000000000000000000000000000000000000000000000000000008152600401610d0390612c0a565b60405180910390fd5b60075481610d1a9190612f14565b3414610d5b576040517f08c379a0000000000000000000000000000000000000000000000000000000008152600401610d5290612baa565b60405180910390fd5b60095481600854610d6c9190612ebe565b1115610dad576040517f08c379a0000000000000000000000000000000000000000000000000000000008152600401610da490612b8a565b60405180910390fd5b600a5481600e60003373ffffffffffffffffffffffffffffffffffffffff1673ffffffffffffffffffffffffffffffffffffffff16815260200190815260200160002054610dfb9190612ebe565b1115610e3c576040517f08c379a0000000000000000000000000000000000000000000000000000000008152600401610e3390612dca565b60405180910390fd5b60005b81811015610e905760006001600854610e589190612ebe565b905060086000815480929190610e6d906130bb565b9190505550610e7c3382611744565b508080610e88906130bb565b915050610e3f565b5050565b610ea6610e9f611173565b8383611762565b5050565b610ebb610eb5611173565b836112b2565b610efa576040517f08c379a0000000000000000000000000000000000000000000000000000000008152600401610ef190612bca565b60405180910390fd5b610f06848484846118cf565b50505050565b6060610f178261192b565b610f56576040517f08c379a0000000000000000000000000000000000000000000000000000000008152600401610f4d90612d8a565b60405180910390fd5b600c610f618361196c565b604051602001610f72929190612aa2565b6040516020818303038152906040529050919050565b60095481565b6000600560008473ffffffffffffffffffffffffffffffffffffffff1673ffffffffffffffffffffffffffffffffffffffff16815260200190815260200160002060008373ffffffffffffffffffffffffffffffffffffffff1673ffffffffffffffffffffffffffffffffffffffff16815260200190815260200160002060009054906101000a900460ff16905092915050565b600e6020528060005260406000206000915090505481565b611042611234565b600073ffffffffffffffffffffffffffffffffffffffff168173ffffffffffffffffffffffffffffffffffffffff1614156110b2576040517f08c379a00000000000000000000000000000000000000000000000000000000081526004016110a990612c2a565b60405180910390fd5b6110bb8161167e565b50565b60007f01ffc9a7000000000000000000000000000000000000000000000000000000007bffffffffffffffffffffffffffffffffffffffffffffffffffffffff1916827bffffffffffffffffffffffffffffffffffffffffffffffffffffffff1916149050919050565b6111318161192b565b611170576040517f08c379a000000000000000000000000000000000000000000000000000000000815260040161116790612d2a565b60405180910390fd5b50565b600033905090565b816004600083815260200190815260200160002060006101000a81548173ffffffffffffffffffffffffffffffffffffffff021916908373ffffffffffffffffffffffffffffffffffffffff160217905550808273ffffffffffffffffffffffffffffffffffffffff166111ee83610a8a565b73ffffffffffffffffffffffffffffffffffffffff167f8c5be1e5ebec7d5bd14f71427d1e84f3dd0314c0f7b2291e5b200ac8c7c3b92560405160405180910390a45050565b61123c611173565b73ffffffffffffffffffffffffffffffffffffffff1661125a610be3565b73ffffffffffffffffffffffffffffffffffffffff16146112b0576040517f08c379a00000000000000000000000000000000000000000000000000000000081526004016112a790612d0a565b60405180910390fd5b565b6000806112be83610a8a565b90508073ffffffffffffffffffffffffffffffffffffffff168473ffffffffffffffffffffffffffffffffffffffff16148061130057506112ff8185610f8e565b5b8061133e57508373ffffffffffffffffffffffffffffffffffffffff16611326846107a2565b73ffffffffffffffffffffffffffffffffffffffff16145b91505092915050565b8273ffffffffffffffffffffffffffffffffffffffff1661136782610a8a565b73ffffffffffffffffffffffffffffffffffffffff16146113bd576040517f08c379a00000000000000000000000000000000000000000000000000000000081526004016113b490612c4a565b60405180910390fd5b600073ffffffffffffffffffffffffffffffffffffffff168273ffffffffffffffffffffffffffffffffffffffff16141561142d576040517f08c379a000000000000000000000000000000000000000000000000000000000815260040161142490612c8a565b60405180910390fd5b61143a8383836001611a90565b8273ffffffffffffffffffffffffffffffffffffffff1661145a82610a8a565b73ffffffffffffffffffffffffffffffffffffffff16146114b0576040517f08c379a00000000000000000000000000000000000000000000000000000000081526004016114a790612c4a565b60405180910390fd5b6004600082815260200190815260200160002060006101000a81549073ffffffffffffffffffffffffffffffffffffffff02191690556001600360008573ffffffffffffffffffffffffffffffffffffffff1673ffffffffffffffffffffffffffffffffffffffff168152602001908152602001600020600082825403925050819055506001600360008473ffffffffffffffffffffffffffffffffffffffff1673ffffffffffffffffffffffffffffffffffffffff16815260200190815260200160002060008282540192505081905550816002600083815260200190815260200160002060006101000a81548173ffffffffffffffffffffffffffffffffffffffff021916908373ffffffffffffffffffffffffffffffffffffffff160217905550808273ffffffffffffffffffffffffffffffffffffffff168473ffffffffffffffffffffffffffffffffffffffff167fddf252ad1be2c89b69c2b068fc378daa952ba7f163c4a11628f55a4df523b3ef60405160405180910390a461163c8383836001611bb6565b505050565b60006002600083815260200190815260200160002060009054906101000a900473ffffffffffffffffffffffffffffffffffffffff169050919050565b6000600660009054906101000a900473ffffffffffffffffffffffffffffffffffffffff16905081600660006101000a81548173ffffffffffffffffffffffffffffffffffffffff021916908373ffffffffffffffffffffffffffffffffffffffff1602179055508173ffffffffffffffffffffffffffffffffffffffff168173ffffffffffffffffffffffffffffffffffffffff167f8be0079c531659141344cd1fd0a4f28419497f9722a3daafe3b4186f6b6457e060405160405180910390a35050565b61175e828260405180602001604052806000815250611bbc565b5050565b8173ffffffffffffffffffffffffffffffffffffffff168373ffffffffffffffffffffffffffffffffffffffff1614156117d1576040517f08c379a00000000000000000000000000000000000000000000000000000000081526004016117c890612caa565b60405180910390fd5b80600560008573ffffffffffffffffffffffffffffffffffffffff1673ffffffffffffffffffffffffffffffffffffffff16815260200190815260200160002060008473ffffffffffffffffffffffffffffffffffffffff1673ffffffffffffffffffffffffffffffffffffffff16815260200190815260200160002060006101000a81548160ff0219169083151502179055508173ffffffffffffffffffffffffffffffffffffffff168373ffffffffffffffffffffffffffffffffffffffff167f17307eab39ab6107e8899845ad3d59bd9653f200f220920489ca2b5937696c31836040516118c29190612b4d565b60405180910390a3505050565b6118da848484611347565b6118e684848484611c17565b611925576040517f08c379a000000000000000000000000000000000000000000000000000000000815260040161191c90612bea565b60405180910390fd5b50505050565b60008073ffffffffffffffffffffffffffffffffffffffff1661194d83611641565b73ffffffffffffffffffffffffffffffffffffffff1614159050919050565b60606000600161197b84611dae565b01905060008167ffffffffffffffff8111156119c0577f4e487b7100000000000000000000000000000000000000000000000000000000600052604160045260246000fd5b6040519080825280601f01601f1916602001820160405280156119f25781602001600182028036833780820191505090505b509050600082602001820190505b600115611a85578080600190039150507f3031323334353637383961626364656600000000000000000000000000000000600a86061a8153600a8581611a6f577f4e487b7100000000000000000000000000000000000000000000000000000000600052601260045260246000fd5b0494506000851415611a8057611a85565b611a00565b819350505050919050565b6001811115611bb057600073ffffffffffffffffffffffffffffffffffffffff168473ffffffffffffffffffffffffffffffffffffffff1614611b245780600360008673ffffffffffffffffffffffffffffffffffffffff1673ffffffffffffffffffffffffffffffffffffffff1681526020019081526020016000206000828254611b1c9190612f6e565b925050819055505b600073ffffffffffffffffffffffffffffffffffffffff168373ffffffffffffffffffffffffffffffffffffffff1614611baf5780600360008573ffffffffffffffffffffffffffffffffffffffff1673ffffffffffffffffffffffffffffffffffffffff1681526020019081526020016000206000828254611ba79190612ebe565b925050819055505b5b50505050565b50505050565b611bc68383611fe5565b611bd36000848484611c17565b611c12576040517f08c379a0000000000000000000000000000000000000000000000000000000008152600401611c0990612bea565b60405180910390fd5b505050565b6000611c388473ffffffffffffffffffffffffffffffffffffffff16612203565b15611da1578373ffffffffffffffffffffffffffffffffffffffff1663150b7a02611c61611173565b8786866040518563ffffffff1660e01b8152600401611c839493929190612b01565b602060405180830381600087803b158015611c9d57600080fd5b505af1925050508015611cce57506040513d601f19601f82011682018060405250810190611ccb91906125dd565b60015b611d51573d8060008114611cfe576040519150601f19603f3d011682016040523d82523d6000602084013e611d03565b606091505b50600081511415611d49576040517f08c379a0000000000000000000000000000000000000000000000000000000008152600401611d4090612bea565b60405180910390fd5b805181602001fd5b63150b7a0260e01b7bffffffffffffffffffffffffffffffffffffffffffffffffffffffff1916817bffffffffffffffffffffffffffffffffffffffffffffffffffffffff191614915050611da6565b600190505b949350505050565b600080600090507a184f03e93ff9f4daa797ed6e38ed64bf6a1f0100000000000000008310611e32577a184f03e93ff9f4daa797ed6e38ed64bf6a1f0100000000000000008381611e28577f4e487b7100000000000000000000000000000000000000000000000000000000600052601260045260246000fd5b0492506040810190505b6d04ee2d6d415b85acef81000000008310611e95576d04ee2d6d415b85acef81000000008381611e8b577f4e487b7100000000000000000000000000000000000000000000000000000000600052601260045260246000fd5b0492506020810190505b662386f26fc100008310611eea57662386f26fc100008381611ee0577f4e487b7100000000000000000000000000000000000000000000000000000000600052601260045260246000fd5b0492506010810190505b6305f5e1008310611f39576305f5e1008381611f2f577f4e487b7100000000000000000000000000000000000000000000000000000000600052601260045260246000fd5b0492506008810190505b6127108310611f84576127108381611f7a577f4e487b7100000000000000000000000000000000000000000000000000000000600052601260045260246000fd5b0492506004810190505b60648310611fcd5760648381611fc3577f4e487b7100000000000000000000000000000000000000000000000000000000600052601260045260246000fd5b0492506002810190505b600a8310611fdc576001810190505b80915050919050565b600073ffffffffffffffffffffffffffffffffffffffff168273ffffffffffffffffffffffffffffffffffffffff161415612055576040517f08c379a000000000000000000000000000000000000000000000000000000000815260040161204c90612cea565b60405180910390fd5b61205e8161192b565b1561209e576040517f08c379a000000000000000000000000000000000000000000000000000000000815260040161209590612c6a565b60405180910390fd5b6120ac600083836001611a90565b6120b58161192b565b156120f5576040517f08c379a00000000000000000000000000000000000000000000000000000000081526004016120ec90612c6a565b60405180910390fd5b6001600360008473ffffffffffffffffffffffffffffffffffffffff1673ffffffffffffffffffffffffffffffffffffffff16815260200190815260200160002060008282540192505081905550816002600083815260200190815260200160002060006101000a81548173ffffffffffffffffffffffffffffffffffffffff021916908373ffffffffffffffffffffffffffffffffffffffff160217905550808273ffffffffffffffffffffffffffffffffffffffff16600073ffffffffffffffffffffffffffffffffffffffff167fddf252ad1be2c89b69c2b068fc378daa952ba7f163c4a11628f55a4df523b3ef60405160405180910390a46121ff600083836001611bb6565b5050565b6000808273ffffffffffffffffffffffffffffffffffffffff163b119050919050565b82805461223290613058565b90600052602060002090601f016020900481019282612254576000855561229b565b82601f1061226d57803560ff191683800117855561229b565b8280016001018555821561229b579182015b8281111561229a57823582559160200191906001019061227f565b5b5090506122a891906122ac565b5090565b5b808211156122c55760008160009055506001016122ad565b5090565b60006122dc6122d784612e2a565b612e05565b9050828152602081018484840111156122f457600080fd5b6122ff848285613016565b509392505050565b6000813590506123168161362f565b92915050565b60008135905061232b81613646565b92915050565b6000813590506123408161365d565b92915050565b6000815190506123558161365d565b92915050565b600082601f83011261236c57600080fd5b813561237c8482602086016122c9565b91505092915050565b60008083601f84011261239757600080fd5b8235905067ffffffffffffffff8111156123b057600080fd5b6020830191508360018202830111156123c857600080fd5b9250929050565b6000813590506123de81613674565b92915050565b6000602082840312156123f657600080fd5b600061240484828501612307565b91505092915050565b6000806040838503121561242057600080fd5b600061242e85828601612307565b925050602061243f85828601612307565b9150509250929050565b60008060006060848603121561245e57600080fd5b600061246c86828701612307565b935050602061247d86828701612307565b925050604061248e868287016123cf565b9150509250925092565b600080600080608085870312156124ae57600080fd5b60006124bc87828801612307565b94505060206124cd87828801612307565b93505060406124de878288016123cf565b925050606085013567ffffffffffffffff8111156124fb57600080fd5b6125078782880161235b565b91505092959194509250565b6000806040838503121561252657600080fd5b600061253485828601612307565b92505060206125458582860161231c565b9150509250929050565b6000806040838503121561256257600080fd5b600061257085828601612307565b9250506020612581858286016123cf565b9150509250929050565b60006020828403121561259d57600080fd5b60006125ab8482850161231c565b91505092915050565b6000602082840312156125c657600080fd5b60006125d484828501612331565b91505092915050565b6000602082840312156125ef57600080fd5b60006125fd84828501612346565b91505092915050565b6000806020838503121561261957600080fd5b600083013567ffffffffffffffff81111561263357600080fd5b61263f85828601612385565b92509250509250929050565b60006020828403121561265d57600080fd5b600061266b848285016123cf565b91505092915050565b61267d81612fa2565b82525050565b61268c81612fb4565b82525050565b600061269d82612e70565b6126a78185612e86565b93506126b7818560208601613025565b6126c081613191565b840191505092915050565b60006126d682612e7b565b6126e08185612ea2565b93506126f0818560208601613025565b6126f981613191565b840191505092915050565b600061270f82612e7b565b6127198185612eb3565b9350612729818560208601613025565b80840191505092915050565b6000815461274281613058565b61274c8186612eb3565b945060018216600081146127675760018114612778576127ab565b60ff198316865281860193506127ab565b61278185612e5b565b60005b838110156127a357815481890152600182019150602081019050612784565b838801955050505b50505092915050565b60006127c1601683612ea2565b91506127cc826131a2565b602082019050919050565b60006127e4601083612ea2565b91506127ef826131cb565b602082019050919050565b6000612807602d83612ea2565b9150612812826131f4565b604082019050919050565b600061282a603283612ea2565b915061283582613243565b604082019050919050565b600061284d601383612ea2565b915061285882613292565b602082019050919050565b6000612870602683612ea2565b915061287b826132bb565b604082019050919050565b6000612893602583612ea2565b915061289e8261330a565b604082019050919050565b60006128b6601c83612ea2565b91506128c182613359565b602082019050919050565b60006128d9602483612ea2565b91506128e482613382565b604082019050919050565b60006128fc601983612ea2565b9150612907826133d1565b602082019050919050565b600061291f602983612ea2565b915061292a826133fa565b604082019050919050565b6000612942602083612ea2565b915061294d82613449565b602082019050919050565b6000612965600583612eb3565b915061297082613472565b600582019050919050565b6000612988602083612ea2565b91506129938261349b565b602082019050919050565b60006129ab601883612ea2565b91506129b6826134c4565b602082019050919050565b60006129ce602183612ea2565b91506129d9826134ed565b604082019050919050565b60006129f1600083612e97565b91506129fc8261353c565b600082019050919050565b6000612a14603d83612ea2565b9150612a1f8261353f565b604082019050919050565b6000612a37601583612ea2565b9150612a428261358e565b602082019050919050565b6000612a5a600f83612ea2565b9150612a65826135b7565b602082019050919050565b6000612a7d603a83612ea2565b9150612a88826135e0565b604082019050919050565b612a9c8161300c565b82525050565b6000612aae8285612735565b9150612aba8284612704565b9150612ac582612958565b91508190509392505050565b6000612adc826129e4565b9150819050919050565b6000602082019050612afb6000830184612674565b92915050565b6000608082019050612b166000830187612674565b612b236020830186612674565b612b306040830185612a93565b8181036060830152612b428184612692565b905095945050505050565b6000602082019050612b626000830184612683565b92915050565b60006020820190508181036000830152612b8281846126cb565b905092915050565b60006020820190508181036000830152612ba3816127b4565b9050919050565b60006020820190508181036000830152612bc3816127d7565b9050919050565b60006020820190508181036000830152612be3816127fa565b9050919050565b60006020820190508181036000830152612c038161281d565b9050919050565b60006020820190508181036000830152612c2381612840565b9050919050565b60006020820190508181036000830152612c4381612863565b9050919050565b60006020820190508181036000830152612c6381612886565b9050919050565b60006020820190508181036000830152612c83816128a9565b9050919050565b60006020820190508181036000830152612ca3816128cc565b9050919050565b60006020820190508181036000830152612cc3816128ef565b9050919050565b60006020820190508181036000830152612ce381612912565b9050919050565b60006020820190508181036000830152612d0381612935565b9050919050565b60006020820190508181036000830152612d238161297b565b9050919050565b60006020820190508181036000830152612d438161299e565b9050919050565b60006020820190508181036000830152612d63816129c1565b9050919050565b60006020820190508181036000830152612d8381612a07565b9050919050565b60006020820190508181036000830152612da381612a2a565b9050919050565b60006020820190508181036000830152612dc381612a4d565b9050919050565b60006020820190508181036000830152612de381612a70565b9050919050565b6000602082019050612dff6000830184612a93565b92915050565b6000612e0f612e20565b9050612e1b828261308a565b919050565b6000604051905090565b600067ffffffffffffffff821115612e4557612e44613162565b5b612e4e82613191565b9050602081019050919050565b60008190508160005260206000209050919050565b600081519050919050565b600081519050919050565b600082825260208201905092915050565b600081905092915050565b600082825260208201905092915050565b600081905092915050565b6000612ec98261300c565b9150612ed48361300c565b9250827fffffffffffffffffffffffffffffffffffffffffffffffffffffffffffffffff03821115612f0957612f08613104565b5b828201905092915050565b6000612f1f8261300c565b9150612f2a8361300c565b9250817fffffffffffffffffffffffffffffffffffffffffffffffffffffffffffffffff0483118215151615612f6357612f62613104565b5b828202905092915050565b6000612f798261300c565b9150612f848361300c565b925082821015612f9757612f96613104565b5b828203905092915050565b6000612fad82612fec565b9050919050565b60008115159050919050565b60007fffffffff0000000000000000000000000000000000000000000000000000000082169050919050565b600073ffffffffffffffffffffffffffffffffffffffff82169050919050565b6000819050919050565b82818337600083830152505050565b60005b83811015613043578082015181840152602081019050613028565b83811115613052576000848401525b50505050565b6000600282049050600182168061307057607f821691505b6020821081141561308457613083613133565b5b50919050565b61309382613191565b810181811067ffffffffffffffff821117156130b2576130b1613162565b5b80604052505050565b60006130c68261300c565b91507fffffffffffffffffffffffffffffffffffffffffffffffffffffffffffffffff8214156130f9576130f8613104565b5b600182019050919050565b7f4e487b7100000000000000000000000000000000000000000000000000000000600052601160045260246000fd5b7f4e487b7100000000000000000000000000000000000000000000000000000000600052602260045260246000fd5b7f4e487b7100000000000000000000000000000000000000000000000000000000600052604160045260246000fd5b6000601f19601f8301169050919050565b7f736f7272792c2077652061726520736f6c64206f757400000000000000000000600082015250565b7f77726f6e67206d696e742076616c756500000000000000000000000000000000600082015250565b7f4552433732313a2063616c6c6572206973206e6f7420746f6b656e206f776e6560008201527f72206f7220617070726f76656400000000000000000000000000000000000000602082015250565b7f4552433732313a207472616e7366657220746f206e6f6e20455243373231526560008201527f63656976657220696d706c656d656e7465720000000000000000000000000000602082015250565b7f6d696e74696e67206e6f7420656e61626c656400000000000000000000000000600082015250565b7f4f776e61626c653a206e6577206f776e657220697320746865207a65726f206160008201527f6464726573730000000000000000000000000000000000000000000000000000602082015250565b7f4552433732313a207472616e736665722066726f6d20696e636f72726563742060008201527f6f776e6572000000000000000000000000000000000000000000000000000000602082015250565b7f4552433732313a20746f6b656e20616c7265616479206d696e74656400000000600082015250565b7f4552433732313a207472616e7366657220746f20746865207a65726f2061646460008201527f7265737300000000000000000000000000000000000000000000000000000000602082015250565b7f4552433732313a20617070726f766520746f2063616c6c657200000000000000600082015250565b7f4552433732313a2061646472657373207a65726f206973206e6f74206120766160008201527f6c6964206f776e65720000000000000000000000000000000000000000000000602082015250565b7f4552433732313a206d696e7420746f20746865207a65726f2061646472657373600082015250565b7f2e6a736f6e000000000000000000000000000000000000000000000000000000600082015250565b7f4f776e61626c653a2063616c6c6572206973206e6f7420746865206f776e6572600082015250565b7f4552433732313a20696e76616c696420746f6b656e2049440000000000000000600082015250565b7f4552433732313a20617070726f76616c20746f2063757272656e74206f776e6560008201527f7200000000000000000000000000000000000000000000000000000000000000602082015250565b50565b7f4552433732313a20617070726f76652063616c6c6572206973206e6f7420746f60008201527f6b656e206f776e6572206f7220617070726f76656420666f7220616c6c000000602082015250565b7f546f6b656e20646f6573206e6f74206578697374210000000000000000000000600082015250565b7f7769746864726177206661696c65640000000000000000000000000000000000600082015250565b7f736f7272792c20746861742068617320657863656564656420746865206d617860008201527f206e756d62657220616c6c6f776564207065722077616c6c6574000000000000602082015250565b61363881612fa2565b811461364357600080fd5b50565b61364f81612fb4565b811461365a57600080fd5b50565b61366681612fc0565b811461367157600080fd5b50565b61367d8161300c565b811461368857600080fd5b5056fea264697066735822122095a76bd7d06ba08408ff68be00bdf103374d0a04a06323dcfc63763c7c9b897c64736f6c63430008040033",
  "linkReferences": {},
  "deployedLinkReferences": {}
}