{
  "_format": "hh-sol-artifact-1",
  "contractName": "CyberNomadNFT",
  "sourceName": "contracts/CyberNomadNFT.sol",
  "abi": [
    {
      "inputs": [],
      "stateMutability": "payable",
      "type": "constructor"
    },
    {
      "anonymous": false,
      "inputs": [
        {
          "indexed": true,
          "internalType": "address",
          "name": "owner",
          "type": "address"
        },
        {
          "indexed": true,
          "internalType": "address",
          "name": "approved",
          "type": "address"
        },
        {
          "indexed": true,
          "internalType": "uint256",
          "name": "tokenId",
          "type": "uint256"
        }
      ],
      "name": "Approval",
      "type": "event"
    },
    {
      "anonymous": false,
      "inputs": [
        {
          "indexed": true,
          "internalType": "address",
          "name": "owner",
          "type": "address"
        },
        {
          "indexed": true,
          "internalType": "address",
          "name": "operator",
          "type": "address"
        },
        {
          "indexed": false,
          "internalType": "bool",
          "name": "approved",
          "type": "bool"
        }
      ],
      "name": "ApprovalForAll",
      "type": "event"
    },
    {
      "anonymous": false,
      "inputs": [
        {
          "indexed": true,
          "internalType": "address",
          "name": "previousOwner",
          "type": "address"
        },
        {
          "indexed": true,
          "internalType": "address",
          "name": "newOwner",
          "type": "address"
        }
      ],
      "name": "OwnershipTransferred",
      "type": "event"
    },
    {
      "anonymous": false,
      "inputs": [
        {
          "indexed": true,
          "internalType": "address",
          "name": "from",
          "type": "address"
        },
        {
          "indexed": true,
          "internalType": "address",
          "name": "to",
          "type": "address"
        },
        {
          "indexed": true,
          "internalType": "uint256",
          "name": "tokenId",
          "type": "uint256"
        }
      ],
      "name": "Transfer",
      "type": "event"
    },
    {
      "inputs": [
        {
          "internalType": "address",
          "name": "to",
          "type": "address"
        },
        {
          "internalType": "uint256",
          "name": "tokenId",
          "type": "uint256"
        }
      ],
      "name": "approve",
      "outputs": [],
      "stateMutability": "nonpayable",
      "type": "function"
    },
    {
      "inputs": [
        {
          "internalType": "address",
          "name": "owner",
          "type": "address"
        }
      ],
      "name": "balanceOf",
      "outputs": [
        {
          "internalType": "uint256",
          "name": "",
          "type": "uint256"
        }
      ],
      "stateMutability": "view",
      "type": "function"
    },
    {
      "inputs": [
        {
          "internalType": "uint256",
          "name": "tokenId",
          "type": "uint256"
        }
      ],
      "name": "getApproved",
      "outputs": [
        {
          "internalType": "address",
          "name": "",
          "type": "address"
        }
      ],
      "stateMutability": "view",
      "type": "function"
    },
    {
      "inputs": [
        {
          "internalType": "address",
          "name": "owner",
          "type": "address"
        },
        {
          "internalType": "address",
          "name": "operator",
          "type": "address"
        }
      ],
      "name": "isApprovedForAll",
      "outputs": [
        {
          "internalType": "bool",
          "name": "",
          "type": "bool"
        }
      ],
      "stateMutability": "view",
      "type": "function"
    },
    {
      "inputs": [],
      "name": "isPublicMintEnabled",
      "outputs": [
        {
          "internalType": "bool",
          "name": "",
          "type": "bool"
        }
      ],
      "stateMutability": "view",
      "type": "function"
    },
    {
      "inputs": [],
      "name": "maxPerWallet",
      "outputs": [
        {
          "internalType": "uint256",
          "name": "",
          "type": "uint256"
        }
      ],
      "stateMutability": "view",
      "type": "function"
    },
    {
      "inputs": [],
      "name": "maxSupply",
      "outputs": [
        {
          "internalType": "uint256",
          "name": "",
          "type": "uint256"
        }
      ],
      "stateMutability": "view",
      "type": "function"
    },
    {
      "inputs": [
        {
          "internalType": "uint256",
          "name": "quantity_",
          "type": "uint256"
        }
      ],
      "name": "mint",
      "outputs": [],
      "stateMutability": "payable",
      "type": "function"
    },
    {
      "inputs": [],
      "name": "mintPrice",
      "outputs": [
        {
          "internalType": "uint256",
          "name": "",
          "type": "uint256"
        }
      ],
      "stateMutability": "view",
      "type": "function"
    },
    {
      "inputs": [],
      "name": "name",
      "outputs": [
        {
          "internalType": "string",
          "name": "",
          "type": "string"
        }
      ],
      "stateMutability": "view",
      "type": "function"
    },
    {
      "inputs": [],
      "name": "owner",
      "outputs": [
        {
          "internalType": "address",
          "name": "",
          "type": "address"
        }
      ],
      "stateMutability": "view",
      "type": "function"
    },
    {
      "inputs": [
        {
          "internalType": "uint256",
          "name": "tokenId",
          "type": "uint256"
        }
      ],
      "name": "ownerOf",
      "outputs": [
        {
          "internalType": "address",
          "name": "",
          "type": "address"
        }
      ],
      "stateMutability": "view",
      "type": "function"
    },
    {
      "inputs": [],
      "name": "renounceOwnership",
      "outputs": [],
      "stateMutability": "nonpayable",
      "type": "function"
    },
    {
      "inputs": [
        {
          "internalType": "address",
          "name": "from",
          "type": "address"
        },
        {
          "internalType": "address",
          "name": "to",
          "type": "address"
        },
        {
          "internalType": "uint256",
          "name": "tokenId",
          "type": "uint256"
        }
      ],
      "name": "safeTransferFrom",
      "outputs": [],
      "stateMutability": "nonpayable",
      "type": "function"
    },
    {
      "inputs": [
        {
          "internalType": "address",
          "name": "from",
          "type": "address"
        },
        {
          "internalType": "address",
          "name": "to",
          "type": "address"
        },
        {
          "internalType": "uint256",
          "name": "tokenId",
          "type": "uint256"
        },
        {
          "internalType": "bytes",
          "name": "data",
          "type": "bytes"
        }
      ],
      "name": "safeTransferFrom",
      "outputs": [],
      "stateMutability": "nonpayable",
      "type": "function"
    },
    {
      "inputs": [
        {
          "internalType": "address",
          "name": "operator",
          "type": "address"
        },
        {
          "internalType": "bool",
          "name": "approved",
          "type": "bool"
        }
      ],
      "name": "setApprovalForAll",
      "outputs": [],
      "stateMutability": "nonpayable",
      "type": "function"
    },
    {
      "inputs": [
        {
          "internalType": "string",
          "name": "baseTokenUri_",
          "type": "string"
        }
      ],
      "name": "setBaseTokenUri",
      "outputs": [],
      "stateMutability": "nonpayable",
      "type": "function"
    },
    {
      "inputs": [
        {
          "internalType": "bool",
          "name": "isPublicMintEnabled_",
          "type": "bool"
        }
      ],
      "name": "setIsPublicMintEnabled",
      "outputs": [],
      "stateMutability": "nonpayable",
      "type": "function"
    },
    {
      "inputs": [
        {
          "internalType": "bytes4",
          "name": "interfaceId",
          "type": "bytes4"
        }
      ],
      "name": "supportsInterface",
      "outputs": [
        {
          "internalType": "bool",
          "name": "",
          "type": "bool"
        }
      ],
      "stateMutability": "view",
      "type": "function"
    },
    {
      "inputs": [],
      "name": "symbol",
      "outputs": [
        {
          "internalType": "string",
          "name": "",
          "type": "string"
        }
      ],
      "stateMutability": "view",
      "type": "function"
    },
    {
      "inputs": [
        {
          "internalType": "uint256",
          "name": "tokenId_",
          "type": "uint256"
        }
      ],
      "name": "tokenURI",
      "outputs": [
        {
          "internalType": "string",
          "name": "",
          "type": "string"
        }
      ],
      "stateMutability": "view",
      "type": "function"
    },
    {
      "inputs": [],
      "name": "totalSupply",
      "outputs": [
        {
          "internalType": "uint256",
          "name": "",
          "type": "uint256"
        }
      ],
      "stateMutability": "view",
      "type": "function"
    },
    {
      "inputs": [
        {
          "internalType": "address",
          "name": "from",
          "type": "address"
        },
        {
          "internalType": "address",
          "name": "to",
          "type": "address"
        },
        {
          "internalType": "uint256",
          "name": "tokenId",
          "type": "uint256"
        }
      ],
      "name": "transferFrom",
      "outputs": [],
      "stateMutability": "nonpayable",
      "type": "function"
    },
    {
      "inputs": [
        {
          "internalType": "address",
          "name": "newOwner",
          "type": "address"
        }
      ],
      "name": "transferOwnership",
      "outputs": [],
      "stateMutability": "nonpayable",
      "type": "function"
    },
    {
      "inputs": [
        {
          "internalType": "address",
          "name": "",
          "type": "address"
        }
      ],
      "name": "walletMints",
      "outputs": [
        {
          "internalType": "uint256",
          "name": "",
          "type": "uint256"
        }
      ],
      "stateMutability": "view",
      "type": "function"
    },
    {
      "inputs": [],
      "name": "withdraw",
      "outputs": [],
      "stateMutability": "nonpayable",
      "type": "function"
    },
    {
      "inputs": [],
      "name": "withdrawWallet",
      "outputs": [
        {
          "internalType": "address payable",
          "name": "",
          "type": "address"
        }
      ],
      "stateMutability": "view",
      "type": "function"
    }
  ],
  "bytecode": "0x60806040526040518060400160405280600d81526020017f43796265724e6f6d61644e4654000000000000000000000000000000000000008152506040518060400160405280600281526020017f434e000000000000000000000000000000000000000000000000000000000000815250816000908051906020019062000088929190620001bf565b508060019080519060200190620000a1929190620001bf565b505050620000c4620000b8620000f160201b60201c565b620000f960201b60201c565b66071afd498d000060078190555060006008819055506103e86009819055506003600a81905550620002d4565b600033905090565b6000600660009054906101000a900473ffffffffffffffffffffffffffffffffffffffff16905081600660006101000a81548173ffffffffffffffffffffffffffffffffffffffff021916908373ffffffffffffffffffffffffffffffffffffffff1602179055508173ffffffffffffffffffffffffffffffffffffffff168173ffffffffffffffffffffffffffffffffffffffff167f8be0079c531659141344cd1fd0a4f28419497f9722a3daafe3b4186f6b6457e060405160405180910390a35050565b828054620001cd906200026f565b90600052602060002090601f016020900481019282620001f157600085556200023d565b82601f106200020c57805160ff19168380011785556200023d565b828001600101855582156200023d579182015b828111156200023c5782518255916020019190600101906200021f565b5b5090506200024c919062000250565b5090565b5b808211156200026b57600081600090555060010162000251565b5090565b600060028204905060018216806200028857607f821691505b602082108114156200029f576200029e620002a5565b5b50919050565b7f4e487b7100000000000000000000000000000000000000000000000000000000600052602260045260246000fd5b61376980620002e46000396000f3fe60806040526004361061019c5760003560e01c806370a08231116100ec578063a22cb4651161008a578063d5abeb0111610064578063d5abeb0114610593578063e985e9c5146105be578063f0293fd3146105fb578063f2fde38b146106385761019c565b8063a22cb46514610504578063b88d4fde1461052d578063c87b56dd146105565761019c565b80638da5cb5b116100c65780638da5cb5b1461046957806395652cfa1461049457806395d89b41146104bd578063a0712d68146104e85761019c565b806370a08231146103ea578063715018a61461042757806385d178f41461043e5761019c565b80632373ac221161015957806342842e0e1161013357806342842e0e1461032e578063453c2310146103575780636352211e146103825780636817c76c146103bf5761019c565b80632373ac22146102c557806323b872dd146102ee5780633ccfd60b146103175761019c565b80630116bc2d146101a157806301ffc9a7146101cc57806306fdde0314610209578063081812fc14610234578063095ea7b31461027157806318160ddd1461029a575b600080fd5b3480156101ad57600080fd5b506101b6610661565b6040516101c39190612be3565b60405180910390f35b3480156101d857600080fd5b506101f360048036038101906101ee9190612620565b610674565b6040516102009190612be3565b60405180910390f35b34801561021557600080fd5b5061021e610756565b60405161022b9190612bfe565b60405180910390f35b34801561024057600080fd5b5061025b600480360381019061025691906126b7565b6107e8565b6040516102689190612b61565b60405180910390f35b34801561027d57600080fd5b50610298600480360381019061029391906125bb565b61082e565b005b3480156102a657600080fd5b506102af610946565b6040516102bc9190612e80565b60405180910390f35b3480156102d157600080fd5b506102ec60048036038101906102e791906125f7565b61094c565b005b3480156102fa57600080fd5b50610315600480360381019061031091906124b5565b610971565b005b34801561032357600080fd5b5061032c6109d1565b005b34801561033a57600080fd5b50610355600480360381019061035091906124b5565b610aaa565b005b34801561036357600080fd5b5061036c610aca565b6040516103799190612e80565b60405180910390f35b34801561038e57600080fd5b506103a960048036038101906103a491906126b7565b610ad0565b6040516103b69190612b61565b60405180910390f35b3480156103cb57600080fd5b506103d4610b57565b6040516103e19190612e80565b60405180910390f35b3480156103f657600080fd5b50610411600480360381019061040c9190612450565b610b5d565b60405161041e9190612e80565b60405180910390f35b34801561043357600080fd5b5061043c610c15565b005b34801561044a57600080fd5b50610453610c29565b6040516104609190612b7c565b60405180910390f35b34801561047557600080fd5b5061047e610c4f565b60405161048b9190612b61565b60405180910390f35b3480156104a057600080fd5b506104bb60048036038101906104b69190612672565b610c79565b005b3480156104c957600080fd5b506104d2610c97565b6040516104df9190612bfe565b60405180910390f35b61050260048036038101906104fd91906126b7565b610d29565b005b34801561051057600080fd5b5061052b6004803603810190610526919061257f565b610f00565b005b34801561053957600080fd5b50610554600480360381019061054f9190612504565b610f16565b005b34801561056257600080fd5b5061057d600480360381019061057891906126b7565b610f78565b60405161058a9190612bfe565b60405180910390f35b34801561059f57600080fd5b506105a8610ff4565b6040516105b59190612e80565b60405180910390f35b3480156105ca57600080fd5b506105e560048036038101906105e09190612479565b610ffa565b6040516105f29190612be3565b60405180910390f35b34801561060757600080fd5b50610622600480360381019061061d9190612450565b61108e565b60405161062f9190612e80565b60405180910390f35b34801561064457600080fd5b5061065f600480360381019061065a9190612450565b6110a6565b005b600b60009054906101000a900460ff1681565b60007f80ac58cd000000000000000000000000000000000000000000000000000000007bffffffffffffffffffffffffffffffffffffffffffffffffffffffff1916827bffffffffffffffffffffffffffffffffffffffffffffffffffffffff1916148061073f57507f5b5e139f000000000000000000000000000000000000000000000000000000007bffffffffffffffffffffffffffffffffffffffffffffffffffffffff1916827bffffffffffffffffffffffffffffffffffffffffffffffffffffffff1916145b8061074f575061074e8261112a565b5b9050919050565b60606000805461076590613100565b80601f016020809104026020016040519081016040528092919081815260200182805461079190613100565b80156107de5780601f106107b3576101008083540402835291602001916107de565b820191906000526020600020905b8154815290600101906020018083116107c157829003601f168201915b5050505050905090565b60006107f382611194565b6004600083815260200190815260200160002060009054906101000a900473ffffffffffffffffffffffffffffffffffffffff169050919050565b600061083982610ad0565b90508073ffffffffffffffffffffffffffffffffffffffff168373ffffffffffffffffffffffffffffffffffffffff1614156108aa576040517f08c379a00000000000000000000000000000000000000000000000000000000081526004016108a190612de0565b60405180910390fd5b8073ffffffffffffffffffffffffffffffffffffffff166108c96111df565b73ffffffffffffffffffffffffffffffffffffffff1614806108f857506108f7816108f26111df565b610ffa565b5b610937576040517f08c379a000000000000000000000000000000000000000000000000000000000815260040161092e90612e00565b60405180910390fd5b61094183836111e7565b505050565b60085481565b6109546112a0565b80600b60006101000a81548160ff02191690831515021790555050565b61098261097c6111df565b8261131e565b6109c1576040517f08c379a00000000000000000000000000000000000000000000000000000000081526004016109b890612c60565b60405180910390fd5b6109cc8383836113b3565b505050565b6109d96112a0565b6000600d60009054906101000a900473ffffffffffffffffffffffffffffffffffffffff1673ffffffffffffffffffffffffffffffffffffffff1647604051610a2190612b4c565b60006040518083038185875af1925050503d8060008114610a5e576040519150601f19603f3d011682016040523d82523d6000602084013e610a63565b606091505b5050905080610aa7576040517f08c379a0000000000000000000000000000000000000000000000000000000008152600401610a9e90612e40565b60405180910390fd5b50565b610ac583838360405180602001604052806000815250610f16565b505050565b600a5481565b600080610adc836116ad565b9050600073ffffffffffffffffffffffffffffffffffffffff168173ffffffffffffffffffffffffffffffffffffffff161415610b4e576040517f08c379a0000000000000000000000000000000000000000000000000000000008152600401610b4590612dc0565b60405180910390fd5b80915050919050565b60075481565b60008073ffffffffffffffffffffffffffffffffffffffff168273ffffffffffffffffffffffffffffffffffffffff161415610bce576040517f08c379a0000000000000000000000000000000000000000000000000000000008152600401610bc590612d60565b60405180910390fd5b600360008373ffffffffffffffffffffffffffffffffffffffff1673ffffffffffffffffffffffffffffffffffffffff168152602001908152602001600020549050919050565b610c1d6112a0565b610c2760006116ea565b565b600d60009054906101000a900473ffffffffffffffffffffffffffffffffffffffff1681565b6000600660009054906101000a900473ffffffffffffffffffffffffffffffffffffffff16905090565b610c816112a0565b8181600c9190610c92929190612292565b505050565b606060018054610ca690613100565b80601f0160208091040260200160405190810160405280929190818152602001828054610cd290613100565b8015610d1f5780601f10610cf457610100808354040283529160200191610d1f565b820191906000526020600020905b815481529060010190602001808311610d0257829003601f168201915b5050505050905090565b600b60009054906101000a900460ff16610d78576040517f08c379a0000000000000000000000000000000000000000000000000000000008152600401610d6f90612ca0565b60405180910390fd5b60075481610d869190612faa565b3414610dc7576040517f08c379a0000000000000000000000000000000000000000000000000000000008152600401610dbe90612c40565b60405180910390fd5b60095481600854610dd89190612f54565b1115610e19576040517f08c379a0000000000000000000000000000000000000000000000000000000008152600401610e1090612c20565b60405180910390fd5b600a5481600e60003373ffffffffffffffffffffffffffffffffffffffff1673ffffffffffffffffffffffffffffffffffffffff16815260200190815260200160002054610e679190612f54565b1115610ea8576040517f08c379a0000000000000000000000000000000000000000000000000000000008152600401610e9f90612e60565b60405180910390fd5b60005b81811015610efc5760006001600854610ec49190612f54565b905060086000815480929190610ed990613163565b9190505550610ee833826117b0565b508080610ef490613163565b915050610eab565b5050565b610f12610f0b6111df565b83836117ce565b5050565b610f27610f216111df565b8361131e565b610f66576040517f08c379a0000000000000000000000000000000000000000000000000000000008152600401610f5d90612c60565b60405180910390fd5b610f728484848461193b565b50505050565b6060610f8382611997565b610fc2576040517f08c379a0000000000000000000000000000000000000000000000000000000008152600401610fb990612e20565b60405180910390fd5b600c610fcd836119d8565b604051602001610fde929190612b1d565b6040516020818303038152906040529050919050565b60095481565b6000600560008473ffffffffffffffffffffffffffffffffffffffff1673ffffffffffffffffffffffffffffffffffffffff16815260200190815260200160002060008373ffffffffffffffffffffffffffffffffffffffff1673ffffffffffffffffffffffffffffffffffffffff16815260200190815260200160002060009054906101000a900460ff16905092915050565b600e6020528060005260406000206000915090505481565b6110ae6112a0565b600073ffffffffffffffffffffffffffffffffffffffff168173ffffffffffffffffffffffffffffffffffffffff16141561111e576040517f08c379a000000000000000000000000000000000000000000000000000000000815260040161111590612cc0565b60405180910390fd5b611127816116ea565b50565b60007f01ffc9a7000000000000000000000000000000000000000000000000000000007bffffffffffffffffffffffffffffffffffffffffffffffffffffffff1916827bffffffffffffffffffffffffffffffffffffffffffffffffffffffff1916149050919050565b61119d81611997565b6111dc576040517f08c379a00000000000000000000000000000000000000000000000000000000081526004016111d390612dc0565b60405180910390fd5b50565b600033905090565b816004600083815260200190815260200160002060006101000a81548173ffffffffffffffffffffffffffffffffffffffff021916908373ffffffffffffffffffffffffffffffffffffffff160217905550808273ffffffffffffffffffffffffffffffffffffffff1661125a83610ad0565b73ffffffffffffffffffffffffffffffffffffffff167f8c5be1e5ebec7d5bd14f71427d1e84f3dd0314c0f7b2291e5b200ac8c7c3b92560405160405180910390a45050565b6112a86111df565b73ffffffffffffffffffffffffffffffffffffffff166112c6610c4f565b73ffffffffffffffffffffffffffffffffffffffff161461131c576040517f08c379a000000000000000000000000000000000000000000000000000000000815260040161131390612da0565b60405180910390fd5b565b60008061132a83610ad0565b90508073ffffffffffffffffffffffffffffffffffffffff168473ffffffffffffffffffffffffffffffffffffffff16148061136c575061136b8185610ffa565b5b806113aa57508373ffffffffffffffffffffffffffffffffffffffff16611392846107e8565b73ffffffffffffffffffffffffffffffffffffffff16145b91505092915050565b8273ffffffffffffffffffffffffffffffffffffffff166113d382610ad0565b73ffffffffffffffffffffffffffffffffffffffff1614611429576040517f08c379a000000000000000000000000000000000000000000000000000000000815260040161142090612ce0565b60405180910390fd5b600073ffffffffffffffffffffffffffffffffffffffff168273ffffffffffffffffffffffffffffffffffffffff161415611499576040517f08c379a000000000000000000000000000000000000000000000000000000000815260040161149090612d20565b60405180910390fd5b6114a68383836001611afc565b8273ffffffffffffffffffffffffffffffffffffffff166114c682610ad0565b73ffffffffffffffffffffffffffffffffffffffff161461151c576040517f08c379a000000000000000000000000000000000000000000000000000000000815260040161151390612ce0565b60405180910390fd5b6004600082815260200190815260200160002060006101000a81549073ffffffffffffffffffffffffffffffffffffffff02191690556001600360008573ffffffffffffffffffffffffffffffffffffffff1673ffffffffffffffffffffffffffffffffffffffff168152602001908152602001600020600082825403925050819055506001600360008473ffffffffffffffffffffffffffffffffffffffff1673ffffffffffffffffffffffffffffffffffffffff16815260200190815260200160002060008282540192505081905550816002600083815260200190815260200160002060006101000a81548173ffffffffffffffffffffffffffffffffffffffff021916908373ffffffffffffffffffffffffffffffffffffffff160217905550808273ffffffffffffffffffffffffffffffffffffffff168473ffffffffffffffffffffffffffffffffffffffff167fddf252ad1be2c89b69c2b068fc378daa952ba7f163c4a11628f55a4df523b3ef60405160405180910390a46116a88383836001611c22565b505050565b60006002600083815260200190815260200160002060009054906101000a900473ffffffffffffffffffffffffffffffffffffffff169050919050565b6000600660009054906101000a900473ffffffffffffffffffffffffffffffffffffffff16905081600660006101000a81548173ffffffffffffffffffffffffffffffffffffffff021916908373ffffffffffffffffffffffffffffffffffffffff1602179055508173ffffffffffffffffffffffffffffffffffffffff168173ffffffffffffffffffffffffffffffffffffffff167f8be0079c531659141344cd1fd0a4f28419497f9722a3daafe3b4186f6b6457e060405160405180910390a35050565b6117ca828260405180602001604052806000815250611c28565b5050565b8173ffffffffffffffffffffffffffffffffffffffff168373ffffffffffffffffffffffffffffffffffffffff16141561183d576040517f08c379a000000000000000000000000000000000000000000000000000000000815260040161183490612d40565b60405180910390fd5b80600560008573ffffffffffffffffffffffffffffffffffffffff1673ffffffffffffffffffffffffffffffffffffffff16815260200190815260200160002060008473ffffffffffffffffffffffffffffffffffffffff1673ffffffffffffffffffffffffffffffffffffffff16815260200190815260200160002060006101000a81548160ff0219169083151502179055508173ffffffffffffffffffffffffffffffffffffffff168373ffffffffffffffffffffffffffffffffffffffff167f17307eab39ab6107e8899845ad3d59bd9653f200f220920489ca2b5937696c318360405161192e9190612be3565b60405180910390a3505050565b6119468484846113b3565b61195284848484611c83565b611991576040517f08c379a000000000000000000000000000000000000000000000000000000000815260040161198890612c80565b60405180910390fd5b50505050565b60008073ffffffffffffffffffffffffffffffffffffffff166119b9836116ad565b73ffffffffffffffffffffffffffffffffffffffff1614159050919050565b6060600060016119e784611e1a565b01905060008167ffffffffffffffff811115611a2c577f4e487b7100000000000000000000000000000000000000000000000000000000600052604160045260246000fd5b6040519080825280601f01601f191660200182016040528015611a5e5781602001600182028036833780820191505090505b509050600082602001820190505b600115611af1578080600190039150507f3031323334353637383961626364656600000000000000000000000000000000600a86061a8153600a8581611adb577f4e487b7100000000000000000000000000000000000000000000000000000000600052601260045260246000fd5b0494506000851415611aec57611af1565b611a6c565b819350505050919050565b6001811115611c1c57600073ffffffffffffffffffffffffffffffffffffffff168473ffffffffffffffffffffffffffffffffffffffff1614611b905780600360008673ffffffffffffffffffffffffffffffffffffffff1673ffffffffffffffffffffffffffffffffffffffff1681526020019081526020016000206000828254611b889190613004565b925050819055505b600073ffffffffffffffffffffffffffffffffffffffff168373ffffffffffffffffffffffffffffffffffffffff1614611c1b5780600360008573ffffffffffffffffffffffffffffffffffffffff1673ffffffffffffffffffffffffffffffffffffffff1681526020019081526020016000206000828254611c139190612f54565b925050819055505b5b50505050565b50505050565b611c328383612051565b611c3f6000848484611c83565b611c7e576040517f08c379a0000000000000000000000000000000000000000000000000000000008152600401611c7590612c80565b60405180910390fd5b505050565b6000611ca48473ffffffffffffffffffffffffffffffffffffffff1661226f565b15611e0d578373ffffffffffffffffffffffffffffffffffffffff1663150b7a02611ccd6111df565b8786866040518563ffffffff1660e01b8152600401611cef9493929190612b97565b602060405180830381600087803b158015611d0957600080fd5b505af1925050508015611d3a57506040513d601f19601f82011682018060405250810190611d379190612649565b60015b611dbd573d8060008114611d6a576040519150601f19603f3d011682016040523d82523d6000602084013e611d6f565b606091505b50600081511415611db5576040517f08c379a0000000000000000000000000000000000000000000000000000000008152600401611dac90612c80565b60405180910390fd5b805181602001fd5b63150b7a0260e01b7bffffffffffffffffffffffffffffffffffffffffffffffffffffffff1916817bffffffffffffffffffffffffffffffffffffffffffffffffffffffff191614915050611e12565b600190505b949350505050565b600080600090507a184f03e93ff9f4daa797ed6e38ed64bf6a1f0100000000000000008310611e9e577a184f03e93ff9f4daa797ed6e38ed64bf6a1f0100000000000000008381611e94577f4e487b7100000000000000000000000000000000000000000000000000000000600052601260045260246000fd5b0492506040810190505b6d04ee2d6d415b85acef81000000008310611f01576d04ee2d6d415b85acef81000000008381611ef7577f4e487b7100000000000000000000000000000000000000000000000000000000600052601260045260246000fd5b0492506020810190505b662386f26fc100008310611f5657662386f26fc100008381611f4c577f4e487b7100000000000000000000000000000000000000000000000000000000600052601260045260246000fd5b0492506010810190505b6305f5e1008310611fa5576305f5e1008381611f9b577f4e487b7100000000000000000000000000000000000000000000000000000000600052601260045260246000fd5b0492506008810190505b6127108310611ff0576127108381611fe6577f4e487b7100000000000000000000000000000000000000000000000000000000600052601260045260246000fd5b0492506004810190505b60648310612039576064838161202f577f4e487b7100000000000000000000000000000000000000000000000000000000600052601260045260246000fd5b0492506002810190505b600a8310612048576001810190505b80915050919050565b600073ffffffffffffffffffffffffffffffffffffffff168273ffffffffffffffffffffffffffffffffffffffff1614156120c1576040517f08c379a00000000000000000000000000000000000000000000000000000000081526004016120b890612d80565b60405180910390fd5b6120ca81611997565b1561210a576040517f08c379a000000000000000000000000000000000000000000000000000000000815260040161210190612d00565b60405180910390fd5b612118600083836001611afc565b61212181611997565b15612161576040517f08c379a000000000000000000000000000000000000000000000000000000000815260040161215890612d00565b60405180910390fd5b6001600360008473ffffffffffffffffffffffffffffffffffffffff1673ffffffffffffffffffffffffffffffffffffffff16815260200190815260200160002060008282540192505081905550816002600083815260200190815260200160002060006101000a81548173ffffffffffffffffffffffffffffffffffffffff021916908373ffffffffffffffffffffffffffffffffffffffff160217905550808273ffffffffffffffffffffffffffffffffffffffff16600073ffffffffffffffffffffffffffffffffffffffff167fddf252ad1be2c89b69c2b068fc378daa952ba7f163c4a11628f55a4df523b3ef60405160405180910390a461226b600083836001611c22565b5050565b6000808273ffffffffffffffffffffffffffffffffffffffff163b119050919050565b82805461229e90613100565b90600052602060002090601f0160209004810192826122c05760008555612307565b82601f106122d957803560ff1916838001178555612307565b82800160010185558215612307579182015b828111156123065782358255916020019190600101906122eb565b5b5090506123149190612318565b5090565b5b80821115612331576000816000905550600101612319565b5090565b600061234861234384612ec0565b612e9b565b90508281526020810184848401111561236057600080fd5b61236b8482856130be565b509392505050565b600081359050612382816136d7565b92915050565b600081359050612397816136ee565b92915050565b6000813590506123ac81613705565b92915050565b6000815190506123c181613705565b92915050565b600082601f8301126123d857600080fd5b81356123e8848260208601612335565b91505092915050565b60008083601f84011261240357600080fd5b8235905067ffffffffffffffff81111561241c57600080fd5b60208301915083600182028301111561243457600080fd5b9250929050565b60008135905061244a8161371c565b92915050565b60006020828403121561246257600080fd5b600061247084828501612373565b91505092915050565b6000806040838503121561248c57600080fd5b600061249a85828601612373565b92505060206124ab85828601612373565b9150509250929050565b6000806000606084860312156124ca57600080fd5b60006124d886828701612373565b93505060206124e986828701612373565b92505060406124fa8682870161243b565b9150509250925092565b6000806000806080858703121561251a57600080fd5b600061252887828801612373565b945050602061253987828801612373565b935050604061254a8782880161243b565b925050606085013567ffffffffffffffff81111561256757600080fd5b612573878288016123c7565b91505092959194509250565b6000806040838503121561259257600080fd5b60006125a085828601612373565b92505060206125b185828601612388565b9150509250929050565b600080604083850312156125ce57600080fd5b60006125dc85828601612373565b92505060206125ed8582860161243b565b9150509250929050565b60006020828403121561260957600080fd5b600061261784828501612388565b91505092915050565b60006020828403121561263257600080fd5b60006126408482850161239d565b91505092915050565b60006020828403121561265b57600080fd5b6000612669848285016123b2565b91505092915050565b6000806020838503121561268557600080fd5b600083013567ffffffffffffffff81111561269f57600080fd5b6126ab858286016123f1565b92509250509250929050565b6000602082840312156126c957600080fd5b60006126d78482850161243b565b91505092915050565b6126e98161304a565b82525050565b6126f881613038565b82525050565b6127078161305c565b82525050565b600061271882612f06565b6127228185612f1c565b93506127328185602086016130cd565b61273b81613239565b840191505092915050565b600061275182612f11565b61275b8185612f38565b935061276b8185602086016130cd565b61277481613239565b840191505092915050565b600061278a82612f11565b6127948185612f49565b93506127a48185602086016130cd565b80840191505092915050565b600081546127bd81613100565b6127c78186612f49565b945060018216600081146127e257600181146127f357612826565b60ff19831686528186019350612826565b6127fc85612ef1565b60005b8381101561281e578154818901526001820191506020810190506127ff565b838801955050505b50505092915050565b600061283c601683612f38565b91506128478261324a565b602082019050919050565b600061285f601083612f38565b915061286a82613273565b602082019050919050565b6000612882602d83612f38565b915061288d8261329c565b604082019050919050565b60006128a5603283612f38565b91506128b0826132eb565b604082019050919050565b60006128c8601383612f38565b91506128d38261333a565b602082019050919050565b60006128eb602683612f38565b91506128f682613363565b604082019050919050565b600061290e602583612f38565b9150612919826133b2565b604082019050919050565b6000612931601c83612f38565b915061293c82613401565b602082019050919050565b6000612954602483612f38565b915061295f8261342a565b604082019050919050565b6000612977601983612f38565b915061298282613479565b602082019050919050565b600061299a602983612f38565b91506129a5826134a2565b604082019050919050565b60006129bd602083612f38565b91506129c8826134f1565b602082019050919050565b60006129e0600583612f49565b91506129eb8261351a565b600582019050919050565b6000612a03602083612f38565b9150612a0e82613543565b602082019050919050565b6000612a26601883612f38565b9150612a318261356c565b602082019050919050565b6000612a49602183612f38565b9150612a5482613595565b604082019050919050565b6000612a6c600083612f2d565b9150612a77826135e4565b600082019050919050565b6000612a8f603d83612f38565b9150612a9a826135e7565b604082019050919050565b6000612ab2601583612f38565b9150612abd82613636565b602082019050919050565b6000612ad5600f83612f38565b9150612ae08261365f565b602082019050919050565b6000612af8603a83612f38565b9150612b0382613688565b604082019050919050565b612b17816130b4565b82525050565b6000612b2982856127b0565b9150612b35828461277f565b9150612b40826129d3565b91508190509392505050565b6000612b5782612a5f565b9150819050919050565b6000602082019050612b7660008301846126ef565b92915050565b6000602082019050612b9160008301846126e0565b92915050565b6000608082019050612bac60008301876126ef565b612bb960208301866126ef565b612bc66040830185612b0e565b8181036060830152612bd8818461270d565b905095945050505050565b6000602082019050612bf860008301846126fe565b92915050565b60006020820190508181036000830152612c188184612746565b905092915050565b60006020820190508181036000830152612c398161282f565b9050919050565b60006020820190508181036000830152612c5981612852565b9050919050565b60006020820190508181036000830152612c7981612875565b9050919050565b60006020820190508181036000830152612c9981612898565b9050919050565b60006020820190508181036000830152612cb9816128bb565b9050919050565b60006020820190508181036000830152612cd9816128de565b9050919050565b60006020820190508181036000830152612cf981612901565b9050919050565b60006020820190508181036000830152612d1981612924565b9050919050565b60006020820190508181036000830152612d3981612947565b9050919050565b60006020820190508181036000830152612d598161296a565b9050919050565b60006020820190508181036000830152612d798161298d565b9050919050565b60006020820190508181036000830152612d99816129b0565b9050919050565b60006020820190508181036000830152612db9816129f6565b9050919050565b60006020820190508181036000830152612dd981612a19565b9050919050565b60006020820190508181036000830152612df981612a3c565b9050919050565b60006020820190508181036000830152612e1981612a82565b9050919050565b60006020820190508181036000830152612e3981612aa5565b9050919050565b60006020820190508181036000830152612e5981612ac8565b9050919050565b60006020820190508181036000830152612e7981612aeb565b9050919050565b6000602082019050612e956000830184612b0e565b92915050565b6000612ea5612eb6565b9050612eb18282613132565b919050565b6000604051905090565b600067ffffffffffffffff821115612edb57612eda61320a565b5b612ee482613239565b9050602081019050919050565b60008190508160005260206000209050919050565b600081519050919050565b600081519050919050565b600082825260208201905092915050565b600081905092915050565b600082825260208201905092915050565b600081905092915050565b6000612f5f826130b4565b9150612f6a836130b4565b9250827fffffffffffffffffffffffffffffffffffffffffffffffffffffffffffffffff03821115612f9f57612f9e6131ac565b5b828201905092915050565b6000612fb5826130b4565b9150612fc0836130b4565b9250817fffffffffffffffffffffffffffffffffffffffffffffffffffffffffffffffff0483118215151615612ff957612ff86131ac565b5b828202905092915050565b600061300f826130b4565b915061301a836130b4565b92508282101561302d5761302c6131ac565b5b828203905092915050565b600061304382613094565b9050919050565b600061305582613094565b9050919050565b60008115159050919050565b60007fffffffff0000000000000000000000000000000000000000000000000000000082169050919050565b600073ffffffffffffffffffffffffffffffffffffffff82169050919050565b6000819050919050565b82818337600083830152505050565b60005b838110156130eb5780820151818401526020810190506130d0565b838111156130fa576000848401525b50505050565b6000600282049050600182168061311857607f821691505b6020821081141561312c5761312b6131db565b5b50919050565b61313b82613239565b810181811067ffffffffffffffff8211171561315a5761315961320a565b5b80604052505050565b600061316e826130b4565b91507fffffffffffffffffffffffffffffffffffffffffffffffffffffffffffffffff8214156131a1576131a06131ac565b5b600182019050919050565b7f4e487b7100000000000000000000000000000000000000000000000000000000600052601160045260246000fd5b7f4e487b7100000000000000000000000000000000000000000000000000000000600052602260045260246000fd5b7f4e487b7100000000000000000000000000000000000000000000000000000000600052604160045260246000fd5b6000601f19601f8301169050919050565b7f736f7272792c2077652061726520736f6c64206f757400000000000000000000600082015250565b7f77726f6e67206d696e742076616c756500000000000000000000000000000000600082015250565b7f4552433732313a2063616c6c6572206973206e6f7420746f6b656e206f776e6560008201527f72206f7220617070726f76656400000000000000000000000000000000000000602082015250565b7f4552433732313a207472616e7366657220746f206e6f6e20455243373231526560008201527f63656976657220696d706c656d656e7465720000000000000000000000000000602082015250565b7f6d696e74696e67206e6f7420656e61626c656400000000000000000000000000600082015250565b7f4f776e61626c653a206e6577206f776e657220697320746865207a65726f206160008201527f6464726573730000000000000000000000000000000000000000000000000000602082015250565b7f4552433732313a207472616e736665722066726f6d20696e636f72726563742060008201527f6f776e6572000000000000000000000000000000000000000000000000000000602082015250565b7f4552433732313a20746f6b656e20616c7265616479206d696e74656400000000600082015250565b7f4552433732313a207472616e7366657220746f20746865207a65726f2061646460008201527f7265737300000000000000000000000000000000000000000000000000000000602082015250565b7f4552433732313a20617070726f766520746f2063616c6c657200000000000000600082015250565b7f4552433732313a2061646472657373207a65726f206973206e6f74206120766160008201527f6c6964206f776e65720000000000000000000000000000000000000000000000602082015250565b7f4552433732313a206d696e7420746f20746865207a65726f2061646472657373600082015250565b7f2e6a736f6e000000000000000000000000000000000000000000000000000000600082015250565b7f4f776e61626c653a2063616c6c6572206973206e6f7420746865206f776e6572600082015250565b7f4552433732313a20696e76616c696420746f6b656e2049440000000000000000600082015250565b7f4552433732313a20617070726f76616c20746f2063757272656e74206f776e6560008201527f7200000000000000000000000000000000000000000000000000000000000000602082015250565b50565b7f4552433732313a20617070726f76652063616c6c6572206973206e6f7420746f60008201527f6b656e206f776e6572206f7220617070726f76656420666f7220616c6c000000602082015250565b7f546f6b656e20646f6573206e6f74206578697374210000000000000000000000600082015250565b7f7769746864726177206661696c65640000000000000000000000000000000000600082015250565b7f736f7272792c20746861742068617320657863656564656420746865206d617860008201527f206e756d62657220616c6c6f776564207065722077616c6c6574000000000000602082015250565b6136e081613038565b81146136eb57600080fd5b50565b6136f78161305c565b811461370257600080fd5b50565b61370e81613068565b811461371957600080fd5b50565b613725816130b4565b811461373057600080fd5b5056fea2646970667358221220a80e23714eb1d706daf9625e141ea0200ae468a1948139e470402ba0af51ddad64736f6c63430008040033",
  "linkReferences": {},
  "deployedLinkReferences": {}
}